:030000000204D126
:01000B0032C2
:0100130032BA
:03001B0002039E3F
:10001E00506C61796572313A2020202020202020FA
:10002E00202000506C61796572323A202020202009
:10003E0020202020200057696E6E6572213A440000
:10004E004C6F7365723A50004C6F7365723A500084
:10005E0057696E6E6572213A4400506C6179206169
:10006E006761696E203F0020202020202020202064
:02007E00200060
:10008000C00078B10000D8FCD00022C000C00179C7
:100090002D78A6D8FED9FADAF6D001D00022D2B354
:1000A000120080C2B322A2E792B7A2E692B6A2E5FE
:1000B00092B5A2E492B412009E120080A2E392B71D
:1000C000A2E292B6A2E192B5A2E092B412009E2200
:1000D000D2B20200A6C2B20200A6C2B374331200AA
:1000E000D574331200D574321200D574281200D59D
:1000F000740C1200D574011200D5C0027A021200ED
:100100008BD00222E49360061200D0A380F6224432
:100110004044800200D5C0E0E8C4540F44301200CF
:0C012000D0E8540F44301200D0D0E02290
:10012C00C0E0C0D0C000C001C002E4F53CF53DF514
:10013C003EF53FF5407A20E533A2E779047830E6C6
:10014C0033F608D9FA7905783CC0D0E6243320E799
:10015C000224D020E30224FDD0D033F608D9EADA09
:10016C00D6D002D001D000D0D0D0E022C0E0C0D098
:10017C00C000C001C0027A207905C37840E613C0E4
:10018C00D030E70224D030E30224FDF618D0D0D9C9
:10019C00EC79047833E613F618D9FADADBD002D00E
:1001AC0001D000D0D0D0E022C0E0C0D0E530253462
:1001BC00F530E5313535F531E5323536F532E533A7
:1001CC003537F533D0D0D0E022C0E0C0D0C3E53015
:1001DC009534F530E5319535F531E5329536F53216
:1001EC00E5339537F533D0D0D0E022C0E0C0D0C392
:1001FC00E5309534E5319535E5329536E53395376F
:10020C009200D0D0D0E022C0E0C0D0C3E53495300D
:10021C00E5359531E5369532E53795339200D0D0FA
:10022C00D0E022C0E0C0D0C200C3E53495307014D9
:10023C00E5359531700EE53695327008E537953316
:10024C007002D200D0D0D0E02212022F2000030284
:10025C0002132212022F2000030201F722C0E0C079
:10026C00F0C0D0C000C001C002C003E5308534F03E
:10027C00A4F8A9F0E5318534F0A429F9E435F0FAB5
:10028C00E5308535F0A429F9E5F03AFAE433FBE5DD
:10029C00328534F0A42AFAE5F03BFBE5318535F0E4
:1002AC00A42AFAE5F03BFBE5308536F0A42AFAE502
:1002BC00F03BFBE5338534F0A42BFBE5328535F0C0
:1002CC00A42BFBE5318536F0A42BFBE5308537F00C
:1002DC00A42BFB8B338A3289318830D003D002D0E7
:1002EC0001D000D0D0D0F0D0E022C0E0C0D0C0000F
:1002FC00C001C002C003C0047C20E4F8F9FAFBC3BF
:10030C00E53033F530E53133F531E53233F532E5AF
:10031C003333F533E833F8E933F9EA33FAEB33FBEB
:10032C00C3E89534E99535EA9536EB95374013E8F3
:10033C009534F8E99535F9EA9536FAEB9537FB43A0
:10034C003001DCBBD004D003D002D001D000D0D01F
:10035C00D0E02285303485313585323685333722ED
:10036C00E530C534F530E531C535F531E532C53606
:10037C00F532E533C537F53322E58954F04401F500
:10038C0089758DEB758B6E75F5EB75F36ED2ABD203
:10039C008E22B29132E58954F04401F589758DEACB
:1003AC00758B6775F5EA75F367D2ABD28E227AB08E
:1003BC0079FA78A6D8FED9FADAF62275C80275CB86
:1003CC000075CA00D29022C28D75F40075F200D26D
:1003DC008022E4780079007A007B10E5CC33F5CCF0
:1003EC00E5CD33F5CDE838D4F8E939D4F9EA3AD487
:1003FC00FADBE822E4780079007A007B10E58A3396
:10040C00F58AE58C33F58CE838D4F8E939D4F9EA77
:10041C003AD4FADBE822EA540F44301200D0E9C493
:10042C00540F44301200D0E9540F44301200D0E87D
:10043C00C4540F44301200D0E8540F44301200D092
:10044C0022853830853931853A32853B337534FD18
:10045C00753543753603753700120269753443756B
:10046C0035667536257537001201B48530388531FF
:10047C003985323A85333B22C002AA3812008BD020
:10048C0002C002AA3912008BD002C002AA3A120092
:10049C008BD002C002AA3B12008BD00222EA540F6E
:1004AC004430754000753F008A3EE9C4540F443017
:1004BC00E9540F4430893DE8C4540F4430E8540FDC
:1004CC004430883C2275817FC0E074011412011104
:1004DC00D0E0C083C082C0E090001E120104D0E0C6
:1004EC00D082D083C0E074011412010FD0E0C0831D
:1004FC00C082C0E0900031120104D0E0D082D083E1
:10050C001203C71203D3D2AF20C5FD85CD38753980
:10051C0001753A8785CC3B754100754200C2CAE42F
:10052C00C28CF58AF58CF5CCF5CDC2CFD2CAD28C63
:10053C001203BAC2CAC28CC0E0740C14120111D0DE
:10054C00E01203DE120422C0E0740C1412010FD06E
:10055C00E01203DE1204220205DE80C1C2CA75CC91
:10056C000075CD0020A0FD30A0FDD2CA20A0FD302A
:10057C00A0FDC2CA85CC5385CD54E5CC45CDF547FD
:10058C00C0E0740B14120111D0E01203DE1204222D
:10059C00C0E0740914120111D0E0C000A847120188
:1005AC0016D000C2CA75CC0075CD0020A1FD30A1BB
:1005BC00FDD2CA20A1FD30A1FDC2CA85CC5585CD86
:1005CC0056C0E0740B1412010FD0E01203DE1204BB
:1005DC002222D201D202C0E0740914120111D0E01F
:1005EC00C000A841120116D000C0E0740914120119
:1005FC000FD0E0C000A842120116D00012044D1218
:10060C000484E539A2E302062A12038575300075CD
:10061C00310075320075330085304F0206AE12037F
:10062C00A102065975348975351275360075370077
:10063C0012025F10000122C2012275348975351235
:10064C0075360075370012025F22C202221205684D
:10065C001204A912017812063010011EC28EE4E5B4
:10066C00412401F541B40530E4D201D20202067CEA
:10067C00D201D2020207A8020630120568120656F1
:10068C001002CAC28EE4E542F542B4050BD201D287
:10069C0002E40206A70206590205DED201D20202CA
:1006AC00083D020630C0E0740F1412010FD0E0C0F8
:1006BC0000A84F120116D000854F347530017531EA
:1006CC00007532007533001201B47534E8753503CA
:1006DC0075360075370012022F20002085304F2010
:1006EC000138C0027A3212008BD00220012C30016A
:1006FC00FDC28EE4E541B400060205DE0205DEF51E
:10070C00307534017535007536007537001201D51A
:10071C00E530D4F541E4D201D202020646C0E074C1
:10072C000F1412010FD0E0C000A84F120116D00018
:10073C00854F3475300175310075320075330012F8
:10074C0001B47534E875350375360075370012023F
:10075C002F2000A885304F200238C0027A321200B8
:10076C008BD00220022C3002FDC28EE4E542B40094
:10077C00030207A1F5307534017535007536007527
:10078C0037001201D5E530D4F542E4C201C20202B1
:10079C0007A10206AED201D2020205DED201D202BC
:1007AC00C0E0740914120111D0E0C083C082C0E013
:1007BC00900044120104D0E0D082D083C0E07409D0
:1007CC001412010FD0E0C083C082C0E090004E1222
:1007DC000104D0E0D082D083C0027A0512008BD005
:1007EC0002C0E0740114120111D0E0C083C082C0B9
:1007FC00E0900068120104D0E0D082D083C0E07495
:10080C00011412010FD0E0C083C082C0E0900075CB
:10081C00120104D0E0D082D083208012C0027A056D
:10082C0012008BD0022080063080FD0208D5020712
:10083C00A8D201D202C0E0740914120111D0E0C098
:10084C0083C082C0E0900056120104D0E0D082D068
:10085C0083C0E074091412010FD0E0C083C082C0C1
:10086C00E090005E120104D0E0D082D083C0027A06
:10087C003212008BD002C0E0740114120111D0E0CE
:10088C00C083C082C0E0900068120104D0E0D08226
:10089C00D083C0E074011412010FD0E0C083C08279
:1008AC00C0E0900075120104D0E0D082D08320808B
:1008BC0015C0027A3212008BD0022080093080FDE4
:1008CC000208D50207A802083D0208D87541007538
:0508DC0042000205DEF0
:00000001FF
