:030000000206965F
:03000B00020540AB
:03001B0002056E6D
:10001E00506C61796572313A2020202000506C615D
:10002E00796572323A202020200050313A57696E9D
:10003E00213A440050323A4C6F73653A50004C6F7F
:10004E007365723A500057696E6E6572213A4400BC
:10005E00506C617920202000416761696E203F005D
:10006E00C00078B10000D8FCD00022C000C00179D9
:10007E002D78A6D8FED9FADAF6D001D00022D2B366
:10008E0012006EC2B322A2E792B7A2E692B6A2E522
:10009E0092B5A2E492B412008C12006EA2E392B753
:1000AE00A2E292B6A2E192B5A2E092B412008C2224
:1000BE00D2B2020094C2B2020094C2B374331200E0
:1000CE00C374331200C374321200C374281200C3F7
:1000DE00740C1200C374011200C3C0027A02120023
:1000EE0079D00222E49360061200BEA380F6224469
:1000FE004044800200C3C0E0E8C4540F44301200F4
:0C010E00BEE8540F44301200BED0E022C6
:10011A00C0E0C0D0C000C001C002E4F53CF53DF526
:10012A003EF53FF5407A20E533A2E779047830E6D8
:10013A0033F608D9FA7905783CE636D4F608D9F9BF
:10014A00DAE5D002D001D000D0D0D0E022C0E0C0A1
:10015A00D0C000C001C002E4F53CF53DF53EF53FD4
:10016A00F5407A20E533A2E779047830E633F608D9
:10017A00D9FA7905783CC0D0E6243320E70224D0A6
:10018A0020E30224FDD0D033F608D9EADAD6D00229
:10019A00D001D000D0D0D0E022C0E0C0D0C000C092
:1001AA0001C0027A207905C37840E613C0D030E74F
:1001BA000224D030E30224FDF618D0D0D9EC790419
:1001CA007833E613F618D9FADADBD002D001D00078
:1001DA00D0D0D0E022C0E0C0D0E5302534F530E5FB
:1001EA00313535F531E5323536F532E5333537F522
:1001FA0033D0D0D0E022C0E0C0D0C3E5309534F58A
:10020A0030E5319535F531E5329536F532E53395F8
:10021A0037F533D0D0D0E022C0E0C0D0C3E5309566
:10022A0034E5319535E5329536E53395379200D088
:10023A00D0D0E022C0E0C0D0C3E5349530E5359592
:10024A0031E5369532E53795339200D0D0D0E022A9
:10025A00C0E0C0D0C200C3E53495307014E53595CE
:10026A0031700EE53695327008E53795337002D253
:10027A0000D0D0D0E02212025A20000302023E220D
:10028A0012025A20000302022222C0E0C0F0C0D0AB
:10029A00C000C001C002C003E5308534F0A4F8A94B
:1002AA00F0E5318534F0A429F9E435F0FAE5308532
:1002BA0035F0A429F9E5F03AFAE433FBE53285345E
:1002CA00F0A42AFAE5F03BFBE5318535F0A42AFAD9
:1002DA00E5F03BFBE5308536F0A42AFAE5F03BFB76
:1002EA00E5338534F0A42BFBE5328535F0A42BFBEE
:1002FA00E5318536F0A42BFBE5308537F0A42BFBDE
:10030A008B338A3289318830D003D002D001D000B1
:10031A00D0D0D0F0D0E022C0E0C0D0C000C001C030
:10032A0002C003C0047C20E4F8F9FAFBC3E53033C9
:10033A00F530E53133F531E53233F532E53333F56E
:10034A0033E833F8E933F9EA33FAEB33FBC3E895D8
:10035A0034E99535EA9536EB95374013E89534F844
:10036A00E99535F9EA9536FAEB9537FB433001DC26
:10037A00BBD004D003D002D001D000D0D0D0E0222C
:10038A0085303485313585323685333722E530C5B7
:10039A0034F530E531C535F531E532C536F532E5A6
:1003AA0033C537F53322E58954F04401F589758C54
:1003BA00F1758A9A75F4F175F29AD2A9D28C22E56E
:1003CA008954F04401F589758CD4758ACD75F4D4B5
:1003DA0075F2CDD2A9D28C22E58954F04401F5896F
:1003EA00758CD6758AB975F4D675F2B9D2A9D28C3C
:1003FA0022E58954F04401F589758CD9758A087506
:10040A00F4D975F208D2A9D28C22E58954F04401B4
:10041A00F589758CDB758A3875F4DB75F238D2A9E3
:10042A00D28C22E58954F04401F589758CDD758AF0
:10043A004A75F4DD75F24AD2A9D28C22E58954F0C4
:10044A004401F589758CDF758A3D75F4DF75F23DD7
:10045A00D2A9D28C22E58954F04401F589758CE140
:10046A00758A1475F4E175F214D2A9D28C22E58941
:10047A0054F04401F589758CE2758AD075F4E275F9
:10048A00F2D0D2A9D28C22E58954F04401F58975BB
:10049A008CE4758A7375F4E475F273D2A9D28C224E
:1004AA00E58954F04401F589758CE5758AFE75F481
:1004BA00E575F2FED2A9D28C22E58954F04401F501
:1004CA0089758CE7758A7575F4E775F275D2A9D2C4
:1004DA008C22E58954F04401F589758CE8758AD532
:1004EA0075F4E875F2D5D2A9D28C22E58954F04484
:1004FA0001F589758CEA758A2275F4EA75F222D2B9
:10050A00A9D28C22E58954F04401F589758CD175FC
:10051A008AAD75F4D175F2ADD2A9D28C22E589548F
:10052A00F04401F589758CB7758A3B75F4B775F295
:10053A003BD2A9D28C22C28DB2913275C80075CD38
:10054A00EB75CC6E75CBEB75CA6EE4F541F542D20C
:10055A00ADD2CA22758DA0758B00E4F541F542D261
:10056A00ABD28E22C28FC0E0C0D00541E5417002F5
:10057A000542E541B4E824E542B4031FD204B28E31
:10058A00E4F541F542E543308104240180022499CF
:10059A00D4F543B46005D203E4F543D0D0D0E032B9
:1005AA007AB079FA78A6D8FED9FADAF62275C800AE
:1005BA0075CB0075CA00D2A0D2A122E478007900D6
:1005CA007A007B10E5CC33F5CCE5CD33F5CDE838B0
:1005DA00D4F8E939D4F9EA3AD4FADBE822EA540F32
:1005EA0044301200BEE9C4540F44301200BEE9542C
:1005FA000F44301200BEE8C4540F44301200BEE863
:10060A00540F44301200BE22853830853931853A7C
:10061A0032853B337534FD753543753603753700BE
:10062A00120294753443753566753625753700128E
:10063A0001DF85303885313985323A85333B22C02E
:10064A0002AA38120079D002C002AA39120079D05F
:10065A0002C002AA3A120079D002C002AA3B1200D2
:10066A0079D00222EA540F4430754000753F008A5F
:10067A003EE9C4540F4430E9540F4430893DE8C47C
:10068A00540F4430E8540F4430883C2275817F125D
:10069A0005B71200C812055EC0E07401141200FF0B
:1006AA00D0E0C083C082C0E090001E1200F2D0E009
:1006BA00D082D083C0E07401141200FDD0E0C08360
:1006CA00C082C0E090002B1200F2D0E0D082D0832A
:1006DA00D2AFD2CAD20420C5FD85CD38753901758D
:1006EA003A8785CC3BC2CA754400754500C2CA75B3
:1006FA00CC0075CD0020A0FD30A0FDD2CA20A0FDFF
:10070A0030A0FDC2CAC0E0740C141200FFD0E0127F
:10071A0005C5C2CA75CC0075CD0020A1FD30A1FD6A
:10072A00D2CA20A1FD30A1FDC2CAC0E0740C1412C5
:10073A0000FDD0E01205C50207DF0206F7C0E0742B
:10074A0009141200FFD0E0C000A844120104D0002E
:10075A00C0E07409141200FDD0E0C000A8451201DF
:10076A0004D000C2CA75CC0075CD0020A0FD30A00F
:10077A00FDD2CA20A0FD30A0FDC2CAC0E0740C148C
:10078A001200FFD0E01205C522C0E074091412005D
:10079A00FFD0E0C000A844120104D000C0E07409F0
:1007AA00141200FDD0E0C000A845120104D000C216
:1007BA00CA75CC0075CD0020A1FD30A1FDD2CA209A
:1007CA00A1FD30A1FDC2CAC0E0740C141200FDD014
:1007DA00E01205C522D201D202C0E074011412004F
:1007EA00FFD0E0C083C082C0E090001E1200F2D0A9
:1007FA00E0D082D083C0E07401141200FDD0E0C0C2
:10080A0083C082C0E090002B1200F2D0E0D082D0E8
:10081A0083C0E07409141200FFD0E0C000A844129B
:10082A000104D000C0E07409141200FDD0E0C00039
:10083A00A845120104D000C28CC28E1206121206FA
:10084A0049E539A2E3400C0208570207DF1203C93F
:10085A000208FE1203B00208937534467535007516
:10086A003600753700120280100003D20122C2013D
:10087A0022753446753500753600753700120280C8
:10088A00100003D20222C2022212074712066E1277
:10089A0001A312086312011A1205E7D28E10011E73
:1008AA00C28EE4E5442401F544B4053EE4D201D203
:1008BA00020208BED201D20202099B020863120791
:1008CA009312066E1201A312087B12011A1205E78F
:1008DA001002B6C28EE4E5452401F545B4050BD2F3
:1008EA0001D202E40208F70208930207DFD201D21A
:1008FA0002020B0912074712066E1201A3120863BD
:10090A0012011A1205E7D28E10013510040FC28E99
:10091A00C28CC204E4E544B400080207DFC28C02B8
:10092A0007DFF53075340175350075360075370007
:10093A00120200E530D4F544E4D201D2020207DF04
:10094A0012079312066E1201A312087B12011A12E1
:10095A0005E7D28E10029D1004C3C28EC28CC20457
:10096A00E4E545B40003020994F5307534017535A0
:10097A0000753600753700120200E530D4F545E4FB
:10098A00C201C2020209940208FED201D20202077F
:10099A00DFD201D202C0E07408141200FFD0E0C016
:1009AA0083C082C0E09000381200F2D0E0D082D03A
:1009BA0083C0E07408141200FDD0E0C083C082C076
:1009CA00E09000421200F2D0E0D082D083C0027AD6
:1009DA0005120079D002C0E07401141200FFD0E0C1
:1009EA00C083C082C0E090005E1200F2D0E0D082E4
:1009FA00D083C0E07401141200FDD0E0C083C0822D
:100A0A00C0E09000661200F2D0E0D082D083C28C9F
:100A1A00120527C0027AFF120079D002C0027AFFBB
:100A2A00120079D0021203E2C0027AFF120079D0D2
:100A3A000212042DC0027AFF120079D00212045F5A
:100A4A00C0027AFF120079D002120478C0027AFF3B
:100A5A00120079D00212045FC0027AFF120079D024
:100A6A000212042DC0027AFF120079D0021203E2A8
:100A7A00C0027AFF120079D002C0027AFF1200790E
:100A8A00D002C0027AFF120079D00212050EC0020B
:100A9A007A96120079D002120414C0027A961200D1
:100AAA0079D0021203E2C0027A96120079D002C00B
:100ABA00027AFF120079D002C0027AFF120079D0BE
:100ACA0002C0027AFF120079D002C28CC0027AFFF9
:100ADA00120079D002C0027AFF120079D002C00255
:100AEA007AFF120079D00220C512C0027A321200AF
:100AFA0079D00220C50630C5FD020C7A02099BD2C4
:100B0A0001D202C0E07408141200FFD0E0C083C012
:100B1A0082C0E09000421200F2D0E0D082D083C0BE
:100B2A00E07408141200FDD0E0C083C082C0E090D7
:100B3A0000381200F2D0E0D082D083C0027A32129A
:100B4A000079D002C0E07401141200FFD0E0C08323
:100B5A00C082C0E090005E1200F2D0E0D082D08362
:100B6A00C0E07401141200FDD0E0C083C082C0E06E
:100B7A009000661200F2D0E0D082D083C28C1205B7
:100B8A0027C0027AFF120079D002C0027AFF12004F
:100B9A0079D0021203E2C0027AFF120079D002125F
:100BAA00042DC0027AFF120079D00212045FC0023B
:100BBA007AFF120079D002120478C0027AFF12007A
:100BCA0079D00212045FC0027AFF120079D00212B1
:100BDA00042DC0027AFF120079D0021203E2C00289
:100BEA007AFF120079D002C0027AFF120079D0028D
:100BFA00C0027AFF120079D00212050EC0027A965C
:100C0A00120079D002120414C0027A96120079D026
:100C1A00021203E2C0027A96120079D002C0027A66
:100C2A00FF120079D002C0027AFF120079D002C006
:100C3A00027AFF120079D002C28CC0027AFF120037
:100C4A0079D002C0027AFF120079D002C0027AFF7C
:100C5A00120079D00220C515C0027A32120079D06A
:100C6A000220C50930C5FD020C7A02099B020B0954
:0C0C7A00020C7D7544007545000207DF88
:00000001FF
