:03000000020544B2
:03000B0002041CD0
:03001B000203D706
:10001E00506C61796572313A2020202020202020FA
:10002E00202000506C61796572323A202020202009
:10003E0020202020200057696E213A44004C6F7317
:10004E00653A50004C6F7365723A500057696E6E88
:10005E006572213A4400506C617920616761696E66
:0E006E00203F002020202020202020202000E5
:10007C00C00078B10000D8FCD00022C000C00179CB
:10008C002D78A6D8FED9FADAF6D001D00022D2B358
:10009C0012007CC2B322A2E792B7A2E692B6A2E506
:1000AC0092B5A2E492B412009A12007CA2E392B729
:1000BC00A2E292B6A2E192B5A2E092B412009A2208
:1000CC00D2B20200A2C2B20200A2C2B374331200B6
:1000DC00D174331200D174321200D174281200D1B1
:1000EC00740C1200D174011200D1C0027A021200F9
:1000FC0087D00222E49360061200CCA380F622443F
:10010C004044800200D1C0E0E8C4540F44301200D7
:0C011C00CCE8540F44301200CCD0E0229C
:10012800C0E0C0D0C000C001C002E4F53CF53DF518
:100138003EF53FF5407A20E533A2E779047830E6CA
:1001480033F608D9FA7905783CE636D4F608D9F9B1
:10015800DAE5D002D001D000D0D0D0E022C0E0C093
:10016800D0C000C001C002E4F53CF53DF53EF53FC6
:10017800F5407A20E533A2E779047830E633F608CB
:10018800D9FA7905783CC0D0E6243320E70224D098
:1001980020E30224FDD0D033F608D9EADAD6D0021B
:1001A800D001D000D0D0D0E022C0E0C0D0C000C084
:1001B80001C0027A207905C37840E613C0D030E741
:1001C8000224D030E30224FDF618D0D0D9EC79040B
:1001D8007833E613F618D9FADADBD002D001D0006A
:1001E800D0D0D0E022C0E0C0D0E5302534F530E5ED
:1001F800313535F531E5323536F532E5333537F514
:1002080033D0D0D0E022C0E0C0D0C3E5309534F57B
:1002180030E5319535F531E5329536F532E53395EA
:1002280037F533D0D0D0E022C0E0C0D0C3E5309558
:1002380034E5319535E5329536E53395379200D07A
:10024800D0D0E022C0E0C0D0C3E5349530E5359584
:1002580031E5369532E53795339200D0D0D0E0229B
:10026800C0E0C0D0C200C3E53495307014E53595C0
:1002780031700EE53695327008E53795337002D245
:1002880000D0D0D0E02212026820000302024C22E3
:1002980012026820000302023022C0E0C0F0C0D081
:1002A800C000C001C002C003E5308534F0A4F8A93D
:1002B800F0E5318534F0A429F9E435F0FAE5308524
:1002C80035F0A429F9E5F03AFAE433FBE532853450
:1002D800F0A42AFAE5F03BFBE5318535F0A42AFACB
:1002E800E5F03BFBE5308536F0A42AFAE5F03BFB68
:1002F800E5338534F0A42BFBE5328535F0A42BFBE0
:10030800E5318536F0A42BFBE5308537F0A42BFBCF
:100318008B338A3289318830D003D002D001D000A3
:10032800D0D0D0F0D0E022C0E0C0D0C000C001C022
:1003380002C003C0047C20E4F8F9FAFBC3E53033BB
:10034800F530E53133F531E53233F532E53333F560
:1003580033E833F8E933F9EA33FAEB33FBC3E895CA
:1003680034E99535EA9536EB95374013E89534F836
:10037800E99535F9EA9536FAEB9537FB433001DC18
:10038800BBD004D003D002D001D000D0D0D0E0221E
:1003980085303485313585323685333722E530C5A9
:1003A80034F530E531C535F531E532C536F532E598
:1003B80033C537F53322E58954F04401F589758D45
:1003C800D4758BCD75F5D475F3CDD2ABD28E22B260
:1003D8009132E58954F04401F589758DD4758BCD3A
:1003E80075F5D475F3CDD2ABD28E2275C80075CD14
:1003F800D475CCCD75CBD475CACDE4F541F542D2D0
:10040800ADD2CA22758CD4758ACDE4F541F542D2B5
:10041800A9D28C22C28DC0E0C0D00541E54170024E
:100428000542E541B4E824E542B4031FD204B28C86
:10043800E4F541F542E54330810424018002249922
:10044800D4F543B46005D203E4F543D0D0D0E0320C
:100458007AB079FA78A6D8FED9FADAF62275C80001
:1004680075CB0075CA00D2A0D2A122E47800790029
:100478007A007B10E5CC33F5CCE5CD33F5CDE83803
:10048800D4F8E939D4F9EA3AD4FADBE822EA540F85
:1004980044301200CCE9C4540F44301200CCE95463
:1004A8000F44301200CCE8C4540F44301200CCE89A
:1004B800540F44301200CC22853830853931853AC2
:1004C80032853B337534FD75354375360375370012
:1004D8001202A275344375356675362575370012D4
:1004E80001ED85303885313985323A85333B22C074
:1004F80002AA38120087D002C002AA39120087D097
:1005080002C002AA3A120087D002C002AA3B120017
:1005180087D00222EA540F4430754000753F008AA4
:100528003EE9C4540F4430E9540F4430893DE8C4CF
:10053800540F4430E8540F4430883C2275817F12B0
:1005480004651200D612040CC0E074011412010DE7
:10055800D0E0C083C082C0E090001E120100D0E04D
:10056800D082D083C0E074011412010BD0E0C083A4
:10057800C082C0E0900031120100D0E0D082D08368
:10058800D2AFD28CD20420C5FD85CD38753901751E
:100598003A8785CC3B754400754500C2CA75CC00C6
:1005A80075CD0020A0FD30A0FDD2CA20A0FD30A04E
:1005B800FDC2CAC0E0740C1412010DD0E01204731D
:1005C800C2CA75CC0075CD0020A1FD30A1FDD2CAEC
:1005D80020A1FD30A1FDC2CAC0E0740C1412010BA9
:1005E800D0E012047302068B0205A3C0E07409145C
:1005F80012010DD0E0C000A844120112D000C0E0E2
:1006080074091412010BD0E0C000A845120112D0E1
:1006180000C2CA75CC0075CD0020A0FD30A0FDD267
:10062800CA20A0FD30A0FDC2CAC0E0740C1412019B
:100638000DD0E012047322C0E074091412010DD029
:10064800E0C000A844120112D000C0E074091412DE
:10065800010BD0E0C000A845120112D000C2CA7533
:10066800CC0075CD0020A1FD30A1FDD2CA20A1FD8E
:1006780030A1FDC2CAC0E0740C1412010BD0E01204
:10068800047322D201D202C0E074091412010DD001
:10069800E0C000A844120112D000C0E0740914128E
:1006A800010BD0E0C000A845120112D0001204C00E
:1006B8001204F7E539A2E30206C440061203BE029B
:1006C80007691203DA020700753425753512753685
:1006D8000075370012028E100003D20122C20122D7
:1006E80075342A75351275360075370012028E106A
:1006F8000003D20222C202221205F312051C1201C3
:10070800B11206D012012812049510011EC28EE4FF
:10071800E5442401F544B4053EE4D201D2020207BF
:1007280029D201D2020208060206D012063F12059B
:100738001C1201B11206E81201281204951002B821
:10074800C28EE4E5452401F545B4050BD201D20279
:10075800E402076202070002068BD201D2020208F5
:100768009B1205F312051C1201B11206D0120128C2
:10077800120495D28C10013510040FC28EC28CC29F
:1007880004E4E544B4000802068BC28C02068BF52B
:100798003075340175350075360075370012020E54
:1007A800E530D4F544E4D201D20202068B12063FAA
:1007B80012051C1201B11206E8120128120495D282
:1007C8008C10029D1004C3C28EC28CC204E4E5459D
:1007D800B400030207FFF53075340175350075362E
:1007E8000075370012020EE530D4F545E4C201C2A7
:1007F800020207FF020769D201D20202068BD20168
:10080800D202C0E0740B1412010DD0E0C083C08284
:10081800C0E0900044120100D0E0D082D083C0E054
:10082800740B1412010BD0E0C083C082C0E09000AA
:100838004B120100D0E0D082D083C0027A051200AA
:1008480087D002C0E074011412010DD0E0C083C04B
:1008580082C0E0900064120100D0E0D082D083C052
:10086800E074011412010BD0E0C083C082C0E09094
:100878000071120100D0E0D082D08320C512C002DE
:100888007A05120087D00220C50630C5FD0209335B
:10089800020806D201D202C0E0740B1412010DD076
:1008A800E0C083C082C0E090004B120100D0E0D0CD
:1008B80082D083C0E0740B1412010BD0E0C083C057
:1008C80082C0E0900044120100D0E0D082D083C002
:1008D800027A32120087D002C0E074011412010DAE
:1008E800D0E0C083C082C0E0900064120100D0E074
:1008F800D082D083C0E074011412010BD0E0C08311
:10090800C082C0E0900071120100D0E0D082D08394
:1009180020C515C0027A32120087D00220C50930DE
:10092800C5FD02093302080602089B020936754410
:070938000075450002068B6B
:00000001FF
