:030000000204B245
:03001B0002039E3F
:10001E00506C61796572313A2020202020202020FA
:10002E00202000506C61796572323A202020202009
:10003E0020202020200057696E6E6572213A440000
:10004E004C6F7365723A50004C6F7365723A500084
:10005E0057696E6E6572213A4400506C6179206169
:10006E006761696E203F0020202020202020202064
:02007E00200060
:10008000C00078B10000D8FCD00022C000C00179C7
:100090002D78A6D8FED9FADAF6D001D00022D2B354
:1000A000120080C2B322A2E792B7A2E692B6A2E5FE
:1000B00092B5A2E492B412009E120080A2E392B71D
:1000C000A2E292B6A2E192B5A2E092B412009E2200
:1000D000D2B20200A6C2B20200A6C2B374331200AA
:1000E000D574331200D574321200D574281200D59D
:1000F000740C1200D574011200D5C0027A021200ED
:100100008BD00222E49360061200D0A380F6224432
:100110004044800200D5C0E0E8C4540F44301200CF
:0C012000D0E8540F44301200D0D0E02290
:10012C00C0E0C0D0C000C001C002E4F53CF53DF514
:10013C003EF53FF5407A20E533A2E779047830E6C6
:10014C0033F608D9FA7905783CC0D0E6243320E799
:10015C000224D020E30224FDD0D033F608D9EADA09
:10016C00D6D002D001D000D0D0D0E022C0E0C0D098
:10017C00C000C001C0027A207905C37840E613C0E4
:10018C00D030E70224D030E30224FDF618D0D0D9C9
:10019C00EC79047833E613F618D9FADADBD002D00E
:1001AC0001D000D0D0D0E022C0E0C0D0E530253462
:1001BC00F530E5313535F531E5323536F532E533A7
:1001CC003537F533D0D0D0E022C0E0C0D0C3E53015
:1001DC009534F530E5319535F531E5329536F53216
:1001EC00E5339537F533D0D0D0E022C0E0C0D0C392
:1001FC00E5309534E5319535E5329536E53395376F
:10020C009200D0D0D0E022C0E0C0D0C3E53495300D
:10021C00E5359531E5369532E53795339200D0D0FA
:10022C00D0E022C0E0C0D0C200C3E53495307014D9
:10023C00E5359531700EE53695327008E537953316
:10024C007002D200D0D0D0E02212022F2000030284
:10025C0002132212022F2000030201F722C0E0C079
:10026C00F0C0D0C000C001C002C003E5308534F03E
:10027C00A4F8A9F0E5318534F0A429F9E435F0FAB5
:10028C00E5308535F0A429F9E5F03AFAE433FBE5DD
:10029C00328534F0A42AFAE5F03BFBE5318535F0E4
:1002AC00A42AFAE5F03BFBE5308536F0A42AFAE502
:1002BC00F03BFBE5338534F0A42BFBE5328535F0C0
:1002CC00A42BFBE5318536F0A42BFBE5308537F00C
:1002DC00A42BFB8B338A3289318830D003D002D0E7
:1002EC0001D000D0D0D0F0D0E022C0E0C0D0C0000F
:1002FC00C001C002C003C0047C20E4F8F9FAFBC3BF
:10030C00E53033F530E53133F531E53233F532E5AF
:10031C003333F533E833F8E933F9EA33FAEB33FBEB
:10032C00C3E89534E99535EA9536EB95374013E8F3
:10033C009534F8E99535F9EA9536FAEB9537FB43A0
:10034C003001DCBBD004D003D002D001D000D0D01F
:10035C00D0E02285303485313585323685333722ED
:10036C00E530C534F530E531C535F531E532C53606
:10037C00F532E533C537F53322E58954F04401F500
:10038C0089758DEB758B6E75F5EB75F36ED2ABD203
:10039C008E22B29132E58954F04401F589758DEACB
:1003AC00758B6775F5EA75F367D2ABD28E227AB08E
:1003BC0079FA78A6D8FED9FADAF62275C80075CB88
:1003CC000075CA00D2A0D2A12275881175F40075EF
:1003DC00F200D28022E4780079007A007B10E5CC20
:1003EC0033F5CCE5CD33F5CDE838D4F8E939D4F98B
:1003FC00EA3AD4FADBE822EA540F44301200D0E98E
:10040C00C4540F44301200D0E9540F44301200D0C1
:10041C00E8C4540F44301200D0E8540F443012009A
:10042C00D022853830853931853A32853B33753465
:10043C00FD75354375360375370012026975344303
:10044C007535667536257537001201B485303885DB
:10045C00313985323A85333B22C002AA3812008BDF
:10046C00D002C002AA3912008BD002C002AA3A12E2
:10047C00008BD002C002AA3B12008BD00222EA549D
:10048C000F4430754000753F008A3EE9C4540F4458
:10049C0030E9540F4430893DE8C4540F4430E854DB
:1004AC000F4430883C2275817F1203C71200DA1288
:1004BC0003D5C0E0740114120111D0E0C083C082D6
:1004CC00C0E090001E120104D0E0D082D083C0E0C6
:1004DC0074011412010FD0E0C083C082C0E0900000
:1004EC0031120104D0E0D082D083D2AF20C5FD857B
:1004FC00CD38753901753A8785CC3B75410075420D
:10050C0000C0E0740914120111D0E0C000A841121F
:10051C000116D000C0E074091412010FD0E0C00025
:10052C00A842120116D000C2CA75CC0075CD0020AD
:10053C00A0FD30A0FDD2CA20A0FD30A0FDC2CAC0D3
:10054C00E0740B14120111D0E01203E1120403C287
:10055C00CA75CC0075CD0020A1FD30A1FDD2CA20FA
:10056C00A1FD30A1FDC2CAC0E0740B1412010FD062
:10057C00E01203E112040302050DC2CA75CC00752A
:10058C00CD0020A0FD30A0FDD2CA20A0FD30A0FDE2
:10059C00C2CAC0E0740B14120111D0E01203E112B4
:1005AC00040322C2CA75CC0075CD0020A1FD30A178
:1005BC00FDD2CA20A1FD30A1FDC2CAC0E0740B144B
:1005CC0012010FD0E01203E112040322D201D20275
:1005DC0012042E120465E539A2E30205FE1203850E
:1005EC0075300075310075320075330085304B0263
:1005FC00068D1203A10206307534897535127536D5
:10060C000075370012025510000122C20122753408
:10061C0089753512753600753700120255100001B8
:10062C0022C2022212058612048A120178120604D2
:10063C0010011EC28EE4E5412401F541B40538E4F5
:10064C00D201D202020653D201D20202078702065D
:10065C00041205AF12048A12017812061A1002C491
:10066C00C28EE4E5422401F542B4050BD201D2025C
:10067C00E40206860206300205D8D201D202020834
:10068C001C020604C0E0740F1412010FD0E0C0006D
:10069C00A84B120116D000854B3475300175310012
:1006AC007532007533001201B47534E87535037575
:1006BC00360075370012022F20002085304B2001A8
:1006CC0038C0027A3212008BD00220012C3001FD8E
:1006DC00C28EE4E541B400060205D80205D8F53017
:1006EC007534017535007536007537001201D5E586
:1006FC0030D4F541E4D201D20202061AC0E0740FE4
:10070C001412010FD0E0C000A84B120116D00085C6
:10071C004B347530017531007532007533001201A0
:10072C00B47534E875350375360075370012022F31
:10073C002000A885304B200238C0027A3212008B80
:10074C00D00220022C3002FDC28EE4E542B400033C
:10075C00020780F530753401753500753600753734
:10076C00001201D5E530D4F542E4C201C202020701
:10077C008002068DD201D2020205D8D201D202C06B
:10078C00E0740914120111D0E0C083C082C0E09063
:10079C000044120104D0E0D082D083C0E07409146C
:1007AC0012010FD0E0C083C082C0E090004E120155
:1007BC0004D0E0D082D083C0027A0512008BD00224
:1007CC00C0E0740114120111D0E0C083C082C0E0FB
:1007DC00900068120104D0E0D082D083C0E0740194
:1007EC001412010FD0E0C083C082C0E090007512DB
:1007FC000104D0E0D082D08320C512C0027A051249
:10080C00008BD00220C50630C5FD0208B402078754
:10081C00D201D202C0E0740914120111D0E0C083DD
:10082C00C082C0E0900056120104D0E0D082D08388
:10083C00C0E074091412010FD0E0C083C082C0E084
:10084C0090005E120104D0E0D082D083C0027A32D4
:10085C0012008BD002C0E0740114120111D0E0C060
:10086C0083C082C0E0900068120104D0E0D082D036
:10087C0083C0E074011412010FD0E0C083C082C0A9
:10088C00E0900075120104D0E0D082D08320C51511
:10089C00C0027A3212008BD00220C50930C5FD028D
:1008AC0008B402078702081C0208B775410075429C
:0408BC00000205D859
:00000001FF
