:03000000020453A4
:03000B000203CB22
:10000E00506C61796572313A20202020202020200A
:10001E00202000506C61796572323A202020202019
:10002E0020202020200057696E6E6572213A440010
:10003E004C6F7365723A50004C6F7365723A500094
:10004E0057696E6E6572213A4400506C6179206179
:10005E006761696E203F0020202020202020202074
:02006E00200070
:10007000C00078B10000D8FCD00022C000C00179D7
:100080002D78A6D8FED9FADAF6D001D00022D2B364
:10009000120070C2B322A2E792B7A2E692B6A2E51E
:1000A00092B5A2E492B412008E120070A2E392B74D
:1000B000A2E292B6A2E192B5A2E092B412008E2220
:1000C000D2B2020096C2B2020096C2B374331200DA
:1000D000C574331200C574321200C574281200C5ED
:1000E000740C1200C574011200C5C0027A0212001D
:1000F0007BD00222E49360061200C0A380F6224463
:100100004044800200C5C0E0E8C4540F44301200EF
:0C011000C0E8540F44301200C0D0E022C0
:10011C00C0E0C0D0C000C001C002E4F53CF53DF524
:10012C003EF53FF5407A20E533A2E779047830E6D6
:10013C0033F608D9FA7905783CE636D4F608D9F9BD
:10014C00DAE5D002D001D000D0D0D0E022C0E0C09F
:10015C00D0C000C001C002E4F53CF53DF53EF53FD2
:10016C00F5407A20E533A2E779047830E633F608D7
:10017C00D9FA7905783CC0D0E6243320E70224D0A4
:10018C0020E30224FDD0D033F608D9EADAD6D00227
:10019C00D001D000D0D0D0E022C0E0C0D0C000C090
:1001AC0001C0027A207905C37840E613C0D030E74D
:1001BC000224D030E30224FDF618D0D0D9EC790417
:1001CC007833E613F618D9FADADBD002D001D00076
:1001DC00D0D0D0E022C0E0C0D0E5302534F530E5F9
:1001EC00313535F531E5323536F532E5333537F520
:1001FC0033D0D0D0E022C0E0C0D0C3E5309534F588
:10020C0030E5319535F531E5329536F532E53395F6
:10021C0037F533D0D0D0E022C0E0C0D0C3E5309564
:10022C0034E5319535E5329536E53395379200D086
:10023C00D0D0E022C0E0C0D0C3E5349530E5359590
:10024C0031E5369532E53795339200D0D0D0E022A7
:10025C00C0E0C0D0C200C3E53495307014E53595CC
:10026C0031700EE53695327008E53795337002D251
:10027C0000D0D0D0E02212025C2000030202402207
:10028C0012025C20000302022422C0E0C0F0C0D0A5
:10029C00C000C001C002C003E5308534F0A4F8A949
:1002AC00F0E5318534F0A429F9E435F0FAE5308530
:1002BC0035F0A429F9E5F03AFAE433FBE53285345C
:1002CC00F0A42AFAE5F03BFBE5318535F0A42AFAD7
:1002DC00E5F03BFBE5308536F0A42AFAE5F03BFB74
:1002EC00E5338534F0A42BFBE5328535F0A42BFBEC
:1002FC00E5318536F0A42BFBE5308537F0A42BFBDC
:10030C008B338A3289318830D003D002D001D000AF
:10031C00D0D0D0F0D0E022C0E0C0D0C000C001C02E
:10032C0002C003C0047C20E4F8F9FAFBC3E53033C7
:10033C00F530E53133F531E53233F532E53333F56C
:10034C0033E833F8E933F9EA33FAEB33FBC3E895D6
:10035C0034E99535EA9536EB95374013E89534F842
:10036C00E99535F9EA9536FAEB9537FB433001DC24
:10037C00BBD004D003D002D001D000D0D0D0E0222A
:10038C0085303485313585323685333722E530C5B5
:10039C0034F530E531C535F531E532C536F532E5A4
:1003AC0033C537F53322E58954F04401F589758C52
:1003BC00D5758AD075F4D575F2D0D2A9C28C22B27B
:1003CC009132E58954F04401F589758CEA758A6798
:1003DC0075F4EA75F267D2A9C28C22B291327AB066
:1003EC0079FA78A6D8FED9FADAF62285383085392A
:1003FC0031853A32853B337534FD7535437536039B
:10040C007537001202967534437535667536257549
:10041C0037001201E185303885313985323A853320
:10042C003B22C002AA3812007BD002C002AA3912A9
:10043C00007BD002C002AA3A12007BD002C002AAF2
:10044C003B12007BD002221203B2C0E074011412E2
:10045C000101D0E0C083C082C0E090000E1200F415
:10046C00D0E0D082D083C0E07401141200FFD0E041
:10047C00C083C082C0E09000211200F4D0E0D08292
:10048C00D083754100754200D2AFD28C20C5FD855A
:10049C00CD38753901753A8785CC3BC28CC2CA12EE
:1004AC0003CE0204B1C0E0740B14120101D0E0C001
:1004BC0000A841120106D000C0E0740B141200FF1A
:1004CC00D0E0C000A842120106D000D28C208012CD
:1004DC00C0027A3212007BD0022080063080FD02EE
:1004EC0004B1C0E0740B14120101D0E0C000A841AB
:1004FC00120106D000C0E0740B141200FFD0E0C053
:10050C0000A842120106D0001203F712042EE5399E
:10051C00A2E34003020528D28C020573D28E020599
:10052C002D20A420C0027A3212007BD00220A41409
:10053C0030A4FDE4E5412401F542B40504E40204D1
:10054C00EE0205DA20A6DAC0027A3212007BD00263
:10055C0020A6CE30A6FDE4E5422401F542B4050404
:10056C00E40204EE02066120A42FC0027A321200CB
:10057C007BD00220A42330A4FDE4E541B4004CF56B
:10058C00307534017535007536007537001202026E
:10059C00E530D4F541E40204EE20A6CBC0027A3259
:1005AC0012007BD00220A6BF30A6FDE4E542B400C9
:1005BC001AF5307534017535007536007537001233
:1005CC000202E530D4F542E40205D70204EEC0E0A5
:1005DC00740914120101D0E0C083C082C0E0900005
:1005EC00341200F4D0E0D082D083C083C082C0E04B
:1005FC0090003E1200F4D0E0D082D083C0027A0585
:10060C0012007BD002C0E0740114120101D0E0C0D2
:10061C0083C082C0E09000581200F4D0E0D082D0A9
:10062C0083C0E07401141200FFD0E0C083C082C00C
:10063C00E09000651200F4D0E0D082D08320A612A6
:10064C00C0027A0512007BD00220A60630A6FD025D
:10065C0006F50205DAC0E0740914120101D0E0C0FD
:10066C0083C082C0E09000461200F4D0E0D082D06B
:10067C0083C0E07409141200FFD0E0C083C082C0B4
:10068C00E090004E1200F4D0E0D082D083C0027A09
:10069C003212007BD002C0E0740114120101D0E0D0
:1006AC00C083C082C0E09000581200F4D0E0D08229
:1006BC00D083C0E07401141200FFD0E0C083C0826C
:1006CC00C0E09000651200F4D0E0D082D08320A668
:1006DC0012C0027A3212007BD00220A60630A6FD90
:1006EC000206F50205DA0206610206F8754100758C
:0506FC0042000204EEC3
:00000001FF
