:03000000020453A4
:03000B000203CB22
:10000E00506C61796572313A20202020202020200A
:10001E00202000506C61796572323A202020202019
:10002E0020202020200057696E6E6572213A440010
:10003E004C6F7365723A50004C6F7365723A500094
:10004E0057696E6E6572213A4400506C6179206179
:10005E006761696E203F0020202020202020202074
:02006E00200070
:10007000C00078B10000D8FCD00022C000C00179D7
:100080002D78A6D8FED9FADAF6D001D00022D2B364
:10009000120070C2B322A2E792B7A2E692B6A2E51E
:1000A00092B5A2E492B412008E120070A2E392B74D
:1000B000A2E292B6A2E192B5A2E092B412008E2220
:1000C000D2B2020096C2B2020096C2B374331200DA
:1000D000C574331200C574321200C574281200C5ED
:1000E000740C1200C574011200C5C0027A0212001D
:1000F0007BD00222E49360061200C0A380F6224463
:100100004044800200C5C0E0E8C4540F44301200EF
:0C011000C0E8540F44301200C0D0E022C0
:10011C00C0E0C0D0C000C001C002E4F53CF53DF524
:10012C003EF53FF5407A20E533A2E779047830E6D6
:10013C0033F608D9FA7905783CE636D4F608D9F9BD
:10014C00DAE5D002D001D000D0D0D0E022C0E0C09F
:10015C00D0C000C001C002E4F53CF53DF53EF53FD2
:10016C00F5407A20E533A2E779047830E633F608D7
:10017C00D9FA7905783CC0D0E6243320E70224D0A4
:10018C0020E30224FDD0D033F608D9EADAD6D00227
:10019C00D001D000D0D0D0E022C0E0C0D0C000C090
:1001AC0001C0027A207905C37840E613C0D030E74D
:1001BC000224D030E30224FDF618D0D0D9EC790417
:1001CC007833E613F618D9FADADBD002D001D00076
:1001DC00D0D0D0E022C0E0C0D0E5302534F530E5F9
:1001EC00313535F531E5323536F532E5333537F520
:1001FC0033D0D0D0E022C0E0C0D0C3E5309534F588
:10020C0030E5319535F531E5329536F532E53395F6
:10021C0037F533D0D0D0E022C0E0C0D0C3E5309564
:10022C0034E5319535E5329536E53395379200D086
:10023C00D0D0E022C0E0C0D0C3E5349530E5359590
:10024C0031E5369532E53795339200D0D0D0E022A7
:10025C00C0E0C0D0C200C3E53495307014E53595CC
:10026C0031700EE53695327008E53795337002D251
:10027C0000D0D0D0E02212025C2000030202402207
:10028C0012025C20000302022422C0E0C0F0C0D0A5
:10029C00C000C001C002C003E5308534F0A4F8A949
:1002AC00F0E5318534F0A429F9E435F0FAE5308530
:1002BC0035F0A429F9E5F03AFAE433FBE53285345C
:1002CC00F0A42AFAE5F03BFBE5318535F0A42AFAD7
:1002DC00E5F03BFBE5308536F0A42AFAE5F03BFB74
:1002EC00E5338534F0A42BFBE5328535F0A42BFBEC
:1002FC00E5318536F0A42BFBE5308537F0A42BFBDC
:10030C008B338A3289318830D003D002D001D000AF
:10031C00D0D0D0F0D0E022C0E0C0D0C000C001C02E
:10032C0002C003C0047C20E4F8F9FAFBC3E53033C7
:10033C00F530E53133F531E53233F532E53333F56C
:10034C0033E833F8E933F9EA33FAEB33FBC3E895D6
:10035C0034E99535EA9536EB95374013E89534F842
:10036C00E99535F9EA9536FAEB9537FB433001DC24
:10037C00BBD004D003D002D001D000D0D0D0E0222A
:10038C0085303485313585323685333722E530C5B5
:10039C0034F530E531C535F531E532C536F532E5A4
:1003AC0033C537F53322E58954F04401F589758C52
:1003BC00D5758AD075F4D575F2D0D2A9C28C22B27B
:1003CC009132E58954F04401F589758CEA758A6798
:1003DC0075F4EA75F267D2A9C28C22B291327AB066
:1003EC0079FA78A6D8FED9FADAF62285383085392A
:1003FC0031853A32853B337534FD7535437536039B
:10040C007537001202967534437535667536257549
:10041C0037001201E185303885313985323A853320
:10042C003B22C002AA3812007BD002C002AA3912A9
:10043C00007BD002C002AA3A12007BD002C002AAF2
:10044C003B12007BD002221203B2C0E074011412E2
:10045C000101D0E0C083C082C0E090000E1200F415
:10046C00D0E0D082D083C0E07401141200FFD0E041
:10047C00C083C082C0E09000211200F4D0E0D08292
:10048C00D083D2AFC28C20C5FD85CD3875390175AE
:10049C003A8785CC3B7541007542000204AAC0E046
:1004AC00740B14120101D0E0C000A841120106D057
:1004BC0000C0E0740B141200FFD0E0C000A8421280
:1004CC000106D000208012C0027A3212007BD002CA
:1004DC002080063080FD0204AAC0E0740B141201C7
:1004EC0001D0E0C000A841120106D000C0E0740B9E
:1004FC00141200FFD0E0C000A842120106D0001276
:10050C0003F712042EE539A2E3400302052212037D
:10051C00CED28C0205741203CED28C02052A200195
:10052C0022C0027A3212007BD0022001163001FD6B
:10053C00C28CE4E5412401F542B40504E40204E56F
:10054C000205DF2002D8C0027A3212007BD00220D2
:10055C0002CC3002FDC28CE4E5422401F542B40524
:10056C0004E40204E5020666200131C0027A32126C
:10057C00007BD0022001253001FDC28CE4E541B4A2
:10058C00004EF53075340175350075360075370041
:10059C00120202E530D4F541E40204E52002C9C0A0
:1005AC00027A3212007BD0022002BD3002FDC28CD6
:1005BC00E4E542B4001AF530753401753500753632
:1005CC0000753700120202E530D4F542E40205DC76
:1005DC000204E5C0E0740914120101D0E0C083C02C
:1005EC0082C0E09000341200F4D0E0D082D083C0FE
:1005FC0083C082C0E090003E1200F4D0E0D082D0E4
:10060C0083C0027A0512007BD002C0E07401141280
:10061C000101D0E0C083C082C0E09000581200F409
:10062C00D0E0D082D083C0E07401141200FFD0E07F
:10063C00C083C082C0E09000651200F4D0E0D0828C
:10064C00D08320808EC0027A0512007BD0022080DD
:10065C00823080FD0206FA0205DFC0E07409141234
:10066C000101D0E0C083C082C0E09000461200F4CB
:10067C00D0E0D082D083C0E07409141200FFD0E027
:10068C00C083C082C0E090004E1200F4D0E0D08253
:10069C00D083C0027A3212007BD002C0E074011405
:1006AC00120101D0E0C083C082C0E090005812005B
:1006BC00F4D0E0D082D083C0E07401141200FFD0DB
:1006CC00E0C083C082C0E09000651200F4D0E0D09E
:1006DC0082D083208015C0027A3212007BD0022097
:1006EC0080093080FD0206FA0205DF02066602066A
:0A06FC00FD7541007542000204E59F
:00000001FF
