:030000000205DC1A
:0100130032BA
:03001B000203E7F6
:10001E00506C61796572313A2020202020202020FA
:10002E00202000506C61796572323A202020202009
:10003E0020202020200057696E6E6572213A440000
:10004E004C6F7365723A50004C6F7365723A500084
:10005E0057696E6E6572213A4400506C6179206169
:10006E006761696E203F0020202020202020202064
:02007E00200060
:10008000C00078B10000D8FCD00022C000C00179C7
:100090002D78A6D8FED9FADAF6D001D00022D2B354
:1000A000120080C2B322A2E792B7A2E692B6A2E5FE
:1000B00092B5A2E492B412009E120080A2E392B71D
:1000C000A2E292B6A2E192B5A2E092B412009E2200
:1000D000D2B20200A6C2B20200A6C2B374331200AA
:1000E000D574331200D574321200D574281200D59D
:1000F000740C1200D574011200D5C0027A021200ED
:100100008BD00222E49360061200D0A380F6224432
:100110004044800200D5C0E0E8C4540F44301200CF
:0C012000D0E8540F44301200D0D0E02290
:10012C00C0E0C0D0C000C001C002E4F53CF53DF514
:10013C003EF53FF5407A20E533A2E779047830E6C6
:10014C0033F608D9FA7905783CE636D4F608D9F9AD
:10015C00DAE5D002D001D000D0D0D0E022C0E0C08F
:10016C00D0C000C001C002E4F53CF53DF53EF53FC2
:10017C00F5407A20E533A2E779047830E633F608C7
:10018C00D9FA7905783CC0D0E6243320E70224D094
:10019C0020E30224FDD0D033F608D9EADAD6D00217
:1001AC00D001D000D0D0D0E022C0E0C0D0C000C080
:1001BC0001C0027A207905C37840E613C0D030E73D
:1001CC000224D030E30224FDF618D0D0D9EC790407
:1001DC007833E613F618D9FADADBD002D001D00066
:1001EC00D0D0D0E022C0E0C0D0E5302534F530E5E9
:1001FC00313535F531E5323536F532E5333537F510
:10020C0033D0D0D0E022C0E0C0D0C3E5309534F577
:10021C0030E5319535F531E5329536F532E53395E6
:10022C0037F533D0D0D0E022C0E0C0D0C3E5309554
:10023C0034E5319535E5329536E53395379200D076
:10024C00D0D0E022C0E0C0D0C3E5349530E5359580
:10025C0031E5369532E53795339200D0D0D0E02297
:10026C00C0E0C0D0C200C3E53495307014E53595BC
:10027C0031700EE53695327008E53795337002D241
:10028C0000D0D0D0E02212026C20000302025022D7
:10029C0012026C20000302023422C0E0C0F0C0D075
:1002AC00C000C001C002C003E5308534F0A4F8A939
:1002BC00F0E5318534F0A429F9E435F0FAE5308520
:1002CC0035F0A429F9E5F03AFAE433FBE53285344C
:1002DC00F0A42AFAE5F03BFBE5318535F0A42AFAC7
:1002EC00E5F03BFBE5308536F0A42AFAE5F03BFB64
:1002FC00E5338534F0A42BFBE5328535F0A42BFBDC
:10030C00E5318536F0A42BFBE5308537F0A42BFBCB
:10031C008B338A3289318830D003D002D001D0009F
:10032C00D0D0D0F0D0E022C0E0C0D0C000C001C01E
:10033C0002C003C0047C20E4F8F9FAFBC3E53033B7
:10034C00F530E53133F531E53233F532E53333F55C
:10035C0033E833F8E933F9EA33FAEB33FBC3E895C6
:10036C0034E99535EA9536EB95374013E89534F832
:10037C00E99535F9EA9536FAEB9537FB433001DC14
:10038C00BBD004D003D002D001D000D0D0D0E0221A
:10039C0085303485313585323685333722E530C5A5
:1003AC0034F530E531C535F531E532C536F532E594
:1003BC0033C537F53322758802758A00758C00D2E7
:1003CC009022E58954F04401F589758DEB758B6E9F
:1003DC0075F5EB75F36ED2ABD28E22B29132E58904
:1003EC0054F04401F589758DEA758B6775F5EA75DE
:1003FC00F367D2ABD28E2275C80075CB0075CA00DC
:10040C00D2AD22C2CFC0E00545E54570020546D00D
:10041C00E0327AB079FA78A6D8FED9FADAF62285E3
:10042C003830853931853A32853B337534FD753535
:10043C00437536037537001202A67534437535665D
:10044C007536257537001201F185303885313985BF
:10045C00323A85333B22C002AA3812008BD002C03C
:10046C0002AA3912008BD002C002AA3A12008BD019
:10047C0002C002AA3B12008BD00222EA540F443075
:10048C00754000753F008A3EE9C4540F4430E9546E
:10049C000F4430893DE8C4540F4430E8540F4430C5
:1004AC00883C22C0E074011412010FD0E0C000A8F7
:1004BC0040120116D000C000A83F120116D000C097
:1004CC0000A83E120116D000C000A83D120116D0A3
:1004DC0000C000A83C120116D000C0E07401141238
:1004EC00010FD0E0E54054F0C460030205B9C0E050
:1004FC0074201200D0D0E0E540540F60030205B91F
:10050C00C0E074201200D0D0E0E53F54F0C460038A
:10051C000205B9C0E074201200D0D0E0E53F540FC2
:10052C0060030205B9C0E074201200D0D0E0E53EB3
:10053C0054F0C460030205B9C0E074201200D0D09E
:10054C00E0E53E540F60030205B9C0E074201200D0
:10055C00D0D0E0E53D54F0C460030205B9C0E074AE
:10056C00201200D0D0E0E53D540F60030205B9C065
:10057C00E074201200D0D0E0E53C54F0C4600302DB
:10058C0005B9C0E074201200D0D0E0E53C540F60F7
:10059C00030205B9C0E074201200D0D0E0E53C5451
:1005AC00F0C47009C0E074201200D0D0E022E478CE
:1005BC000079007A007B10E5CC33F5CCE5CD33F532
:1005CC00CDE838D4F8E939D4F9EA3AD4FADBE822A0
:1005DC0075817FC0E0740114120111D0E0C083C09A
:1005EC0082C0E090001E120104D0E0D082D083C003
:1005FC00E074011412010FD0E0C083C082C0E090FF
:10060C000031120104D0E0D082D0831203C2120454
:10061C0003D2AF20C5FD85CD38753901753A878574
:10062C00CC3B754100754200020637C28CE4F58A5A
:10063C00F58CC28DD28C12041EC28CC0E0740B14CB
:10064C00120111D0E01205BA1204871204AFC0E0F7
:10065C00740914120111D0E0C000A841120116D087
:10066C0000C0E074091412010FD0E0C000A84212BF
:10067C000116D000208012C0027A3212008BD002F8
:10068C002080063080FD020637C0E0740914120188
:10069C0011D0E0C000A841120116D000C0E07409CE
:1006AC001412010FD0E0C000A842120116D000C2F3
:1006BC0001C20212042B120462C0E074091412016C
:1006CC0011D0E0C000A841120116D000C0E074099E
:1006DC001412010FD0E0C000A842120116D000E5A0
:1006EC0039A2E30207071203CE753000753100758D
:1006FC00320075330085304F0207AD1203EA020752
:10070C000D753470753512753600753700854730A8
:10071C0012029C100003020747D2010207477534EE
:10072C0070753512753600753700854B3012029C8A
:10073C00100003020774D2020207742001E0C00209
:10074C007A3212008BD0022001D43001FDC28EE42B
:10075C00E5412401F541B4053EE4C201C2020207A1
:10076C006DC201C2020208A702072A200293C0022E
:10077C007A3212008BD0022002173002FDC28EE4B6
:10078C00E5422401F542B4050EC201C202E402079F
:10079C00A602070D020747020695C201C202020912
:1007AC003202070DC0E0740F1412010FD0E0C0002C
:1007BC00A84F120116D000854F34753001753100E9
:1007CC007532007533001201F17534E87535037517
:1007DC00360075370012026C20002085304F200146
:1007EC0038C0027A3212008BD00220012C3001FD6D
:1007FC00C28EE4E541B40006020695020695F5307A
:10080C00753401753500753600753700120212E526
:10081C0030D4F541E4C201C20202072AC0E0740FD1
:10082C001412010FD0E0C000A84F120116D00085A1
:10083C004F3475300175310075320075330012017B
:10084C00F17534E875350375360075370012026C96
:10085C002000A885304F200238C0027A3212008B5B
:10086C00D00220022C3002FDC28EE4E542B400031B
:10087C000208A0F5307534017535007536007537F2
:10088C0000120212E530D4F542E4C201C2020208A1
:10089C00A00207ADC201C202020695C201C202C08B
:1008AC00E0740914120111D0E0C083C082C0E09042
:1008BC000044120104D0E0D082D083C083C082C037
:1008CC00E090004E120104D0E0D082D083C0027AB6
:1008DC000512008BD002C0E0740114120111D0E09B
:1008EC00C083C082C0E0900068120104D0E0D082C6
:1008FC00D083C0E074011412010FD0E0C083C08219
:10090C00C0E0900075120104D0E0D082D08320802A
:10091C0012C0027A0512008BD0022080063080FDB6
:10092C000209CA0208A7C201C202C0E0740914126B
:10093C000111D0E0C083C082C0E0900056120104C7
:10094C00D0E0D082D083C0E074091412010FD0E043
:10095C00C083C082C0E090005E120104D0E0D0825F
:10096C00D083C0027A3212008BD002C0E074011422
:10097C00120111D0E0C083C082C0E0900068120167
:10098C0004D0E0D082D083C0E074011412010FD0E7
:10099C00E0C083C082C0E0900075120104D0E0D0AA
:1009AC0082D083208015C0027A3212008BD00220B4
:1009BC0080093080FD0209CA0208A7020932020927
:1009CC00CD754100754200020695E4780079007AF5
:1009DC00007B10E58A33F58AE58C33F58CE838D446
:1009EC00F8E939D4F9EA3AD4FADBE822EA540F44AC
:1009FC00301200D0E9C4540F44301200D0E9540F27
:100A0C0044301200D0E8C4540F44301200D0E854E3
:070A1C000F44301200D0224C
:00000001FF
