:030000000204A453
:03000B0002039E4F
:0100130032BA
:03001B000203C617
:10001E00506C61796572313A2020202020202020FA
:10002E00202000506C61796572323A202020202009
:10003E0020202020200057696E6E6572213A440000
:10004E004C6F7365723A50004C6F7365723A500084
:10005E0057696E6E6572213A4400506C6179206169
:10006E006761696E203F0020202020202020202064
:02007E00200060
:10008000C00078B10000D8FCD00022C000C00179C7
:100090002D78A6D8FED9FADAF6D001D00022D2B354
:1000A000120080C2B322A2E792B7A2E692B6A2E5FE
:1000B00092B5A2E492B412009E120080A2E392B71D
:1000C000A2E292B6A2E192B5A2E092B412009E2200
:1000D000D2B20200A6C2B20200A6C2B374331200AA
:1000E000D574331200D574321200D574281200D59D
:1000F000740C1200D574011200D5C0027A021200ED
:100100008BD00222E49360061200D0A380F6224432
:100110004044800200D5C0E0E8C4540F44301200CF
:0C012000D0E8540F44301200D0D0E02290
:10012C00C0E0C0D0C000C001C002E4F53CF53DF514
:10013C003EF53FF5407A20E533A2E779047830E6C6
:10014C0033F608D9FA7905783CC0D0E6243320E799
:10015C000224D020E30224FDD0D033F608D9EADA09
:10016C00D6D002D001D000D0D0D0E022C0E0C0D098
:10017C00C000C001C0027A207905C37840E613C0E4
:10018C00D030E70224D030E30224FDF618D0D0D9C9
:10019C00EC79047833E613F618D9FADADBD002D00E
:1001AC0001D000D0D0D0E022C0E0C0D0E530253462
:1001BC00F530E5313535F531E5323536F532E533A7
:1001CC003537F533D0D0D0E022C0E0C0D0C3E53015
:1001DC009534F530E5319535F531E5329536F53216
:1001EC00E5339537F533D0D0D0E022C0E0C0D0C392
:1001FC00E5309534E5319535E5329536E53395376F
:10020C009200D0D0D0E022C0E0C0D0C3E53495300D
:10021C00E5359531E5369532E53795339200D0D0FA
:10022C00D0E022C0E0C0D0C200C3E53495307014D9
:10023C00E5359531700EE53695327008E537953316
:10024C007002D200D0D0D0E02212022F2000030284
:10025C0002132212022F2000030201F722C0E0C079
:10026C00F0C0D0C000C001C002C003E5308534F03E
:10027C00A4F8A9F0E5318534F0A429F9E435F0FAB5
:10028C00E5308535F0A429F9E5F03AFAE433FBE5DD
:10029C00328534F0A42AFAE5F03BFBE5318535F0E4
:1002AC00A42AFAE5F03BFBE5308536F0A42AFAE502
:1002BC00F03BFBE5338534F0A42BFBE5328535F0C0
:1002CC00A42BFBE5318536F0A42BFBE5308537F00C
:1002DC00A42BFB8B338A3289318830D003D002D0E7
:1002EC0001D000D0D0D0F0D0E022C0E0C0D0C0000F
:1002FC00C001C002C003C0047C20E4F8F9FAFBC3BF
:10030C00E53033F530E53133F531E53233F532E5AF
:10031C003333F533E833F8E933F9EA33FAEB33FBEB
:10032C00C3E89534E99535EA9536EB95374013E8F3
:10033C009534F8E99535F9EA9536FAEB9537FB43A0
:10034C003001DCBBD004D003D002D001D000D0D01F
:10035C00D0E02285303485313585323685333722ED
:10036C00E530C534F530E531C535F531E532C53606
:10037C00F532E533C537F53322E58954F04401F500
:10038C0089758CEA758AE875F4EA75F2E8D2A9D217
:10039C008C22C28DC0E00543E54370020544D0E0D9
:1003AC0032E58954F04401F589758DEB758B6E75CA
:1003BC00F5EB75F36ED2ABD28E22B29132E5895445
:1003CC00F04401F589758DEA758B6775F5EA75F35F
:1003DC0067D2ABD28E227AB079FA78A6D8FED9FA47
:1003EC00DAF62275C80275CB0075CA00D29022E4E9
:1003FC00780079007A007B10E5CC33F5CCE5CD3371
:10040C00F5CDE838D4F8E939D4F9EA3AD4FADBE88E
:10041C0022EA540F44301200D0E9C4540F44301275
:10042C0000D0E9540F44301200D0E8C4540F4430CB
:10043C001200D0E8540F44301200D0228538308599
:10044C003931853A32853B337534FD753543753614
:10045C000375370012026975344375356675362598
:10046C007537001201B485303885313985323A85BB
:10047C00333B22C002AA3812008BD002C002AA3928
:10048C0012008BD002C002AA3A12008BD002C0021A
:10049C00AA3B12008BD0022275817FC0E07401143C
:1004AC00120111D0E0C083C082C0E090001E120186
:1004BC0004D0E0D082D083C0E074011412010FD0BC
:1004CC00E0C083C082C0E0900031120104D0E0D0C3
:1004DC0082D0831203EFD2AF20C5FD85CD3875399C
:1004EC0001753A8785CC3B754100754200C2CAE460
:1004FC00F5CCF5CDC2CFD2CA1203E2C2CAC0E074A9
:10050C000C1412010FD0E01203FB12041D02053F64
:10051C0080DBC2CAE4F5CCF5CDC2CFD2CA1203E25D
:10052C00C2CAC0E0740C1412010FD0E01203FB120B
:10053C00041D22C201C202C0E0740914120111D0C0
:10054C00E0C000A841120116D000C0E074091412DA
:10055C00010FD0E0C000A842120116D000120448CE
:10056C0012047FE539A2E302058B1203AD7530004E
:10057C0075310075320075330085304F0206431219
:10058C0003C902059112051E753470753512753646
:10059C000075370085473012025F1000030205D149
:1005AC00D2010205D112051E7534707535127536DF
:1005BC0000753700854B3012025F10000302060DE8
:1005CC00D20202060D12051EC000A801120116D09F
:1005DC00002001D1C0027A3212008BD0022001C55A
:1005EC003001FDC28EE4E5412401F541B4053EE441
:1005FC00C201C202020603C201C20202073D020589
:10060C009112051E2002F7C0027A3212008BD00222
:10061C002002EB3002FDC28EE4E5422401F542B427
:10062C00050BC201C202E402063C0205D102053FE1
:10063C00C201C2020207C8020591C0E0740F141275
:10064C00010FD0E0C000A84F120116D000854F3426
:10065C007530017531007532007533001201B475B7
:10066C0034E875350375360075370012022F2000FB
:10067C002085304F200138C0027A3212008BD00214
:10068C0020012C3001FDC28EE4E541B400060205C8
:10069C003F02053FF5307534017535007536007530
:1006AC0037001201D5E530D4F541E4C201C2020293
:1006BC0005B1C0E0740F1412010FD0E0C000A84FB8
:1006CC00120116D000854F3475300175310075322A
:1006DC00007533001201B47534E8753503753600B6
:1006EC0075370012022F2000A885304F200238C029
:1006FC00027A3212008BD00220022C3002FDC28E04
:10070C00E4E542B40003020736F530753401753563
:10071C00007536007537001201D5E530D4F542E48A
:10072C00C201C202020736020643C201C20202051E
:10073C003FC201C202C0E0740914120111D0E0C022
:10074C0083C082C0E0900044120104D0E0D082D07B
:10075C0083C083C082C0E090004E120104D0E0D070
:10076C0082D083C0027A0512008BD002C0E07401E3
:10077C0014120111D0E0C083C082C0E09000681256
:10078C000104D0E0D082D083C0E074011412010FB8
:10079C00D0E0C083C082C0E0900075120104D0E0AC
:1007AC00D082D083208012C0027A0512008BD00236
:1007BC002080063080FD02086002073DC201C202A3
:1007CC00C0E0740914120111D0E0C083C082C0E0F3
:1007DC00900056120104D0E0D082D083C0E074099E
:1007EC001412010FD0E0C083C082C0E090005E12F2
:1007FC000104D0E0D082D083C0027A3212008BD0B8
:10080C0002C0E0740114120111D0E0C083C082C098
:10081C00E0900068120104D0E0D082D083C0E07474
:10082C00011412010FD0E0C083C082C0E0900075AB
:10083C00120104D0E0D082D083208015C0027A321D
:10084C0012008BD0022080093080FD020860020764
:10085C003D0207C802086375410075420002053F5E
:00000001FF
