:030000000204EF08
:03001B000203DB02
:10001E00506C61796572313A2020202020202020FA
:10002E00202000506C61796572323A202020202009
:10003E0020202020200057696E6E6572213A440000
:10004E004C6F7365723A50004C6F7365723A500084
:10005E0057696E6E6572213A4400506C6179206169
:10006E006761696E203F0020202020202020202064
:02007E00200060
:10008000C00078B10000D8FCD00022C000C00179C7
:100090002D78A6D8FED9FADAF6D001D00022D2B354
:1000A000120080C2B322A2E792B7A2E692B6A2E5FE
:1000B00092B5A2E492B412009E120080A2E392B71D
:1000C000A2E292B6A2E192B5A2E092B412009E2200
:1000D000D2B20200A6C2B20200A6C2B374331200AA
:1000E000D574331200D574321200D574281200D59D
:1000F000740C1200D574011200D5C0027A021200ED
:100100008BD00222E49360061200D0A380F6224432
:100110004044800200D5C0E0E8C4540F44301200CF
:0C012000D0E8540F44301200D0D0E02290
:10012C00C0E0C0D0C000C001C002E4F53CF53DF514
:10013C003EF53FF5407A20E533A2E779047830E6C6
:10014C0033F608D9FA7905783CE636D4F608D9F9AD
:10015C00DAE5D002D001D000D0D0D0E022C0E0C08F
:10016C00D0C000C001C002E4F53CF53DF53EF53FC2
:10017C00F5407A20E533A2E779047830E633F608C7
:10018C00D9FA7905783CC0D0E6243320E70224D094
:10019C0020E30224FDD0D033F608D9EADAD6D00217
:1001AC00D001D000D0D0D0E022C0E0C0D0C000C080
:1001BC0001C0027A207905C37840E613C0D030E73D
:1001CC000224D030E30224FDF618D0D0D9EC790407
:1001DC007833E613F618D9FADADBD002D001D00066
:1001EC00D0D0D0E022C0E0C0D0E5302534F530E5E9
:1001FC00313535F531E5323536F532E5333537F510
:10020C0033D0D0D0E022C0E0C0D0C3E5309534F577
:10021C0030E5319535F531E5329536F532E53395E6
:10022C0037F533D0D0D0E022C0E0C0D0C3E5309554
:10023C0034E5319535E5329536E53395379200D076
:10024C00D0D0E022C0E0C0D0C3E5349530E5359580
:10025C0031E5369532E53795339200D0D0D0E02297
:10026C00C0E0C0D0C200C3E53495307014E53595BC
:10027C0031700EE53695327008E53795337002D241
:10028C0000D0D0D0E02212026C20000302025022D7
:10029C0012026C20000302023422C0E0C0F0C0D075
:1002AC00C000C001C002C003E5308534F0A4F8A939
:1002BC00F0E5318534F0A429F9E435F0FAE5308520
:1002CC0035F0A429F9E5F03AFAE433FBE53285344C
:1002DC00F0A42AFAE5F03BFBE5318535F0A42AFAC7
:1002EC00E5F03BFBE5308536F0A42AFAE5F03BFB64
:1002FC00E5338534F0A42BFBE5328535F0A42BFBDC
:10030C00E5318536F0A42BFBE5308537F0A42BFBCB
:10031C008B338A3289318830D003D002D001D0009F
:10032C00D0D0D0F0D0E022C0E0C0D0C000C001C01E
:10033C0002C003C0047C20E4F8F9FAFBC3E53033B7
:10034C00F530E53133F531E53233F532E53333F55C
:10035C0033E833F8E933F9EA33FAEB33FBC3E895C6
:10036C0034E99535EA9536EB95374013E89534F832
:10037C00E99535F9EA9536FAEB9537FB433001DC14
:10038C00BBD004D003D002D001D000D0D0D0E0221A
:10039C0085303485313585323685333722E530C5A5
:1003AC0034F530E531C535F531E532C536F532E594
:1003BC0033C537F53322E58954F04401F589758D41
:1003CC00EB758B6E75F5EB75F36ED2ABD28E22B2EC
:1003DC009132E58954F04401F589758DEA758B6786
:1003EC0075F5EA75F367D2ABD28E227AB079FA78CA
:1003FC00A6D8FED9FADAF62275C80075CB0075CAF4
:10040C0000D2A0D2A12275881175F40075F200D229
:10041C008022E4780079007A007B10E5CC33F5CCAF
:10042C00E5CD33F5CDE838D4F8E939D4F9EA3AD446
:10043C00FADBE822EA540F44301200D0E9C4540F1E
:10044C0044301200D0E9540F44301200D0E8C454A8
:10045C000F44301200D0E8540F44301200D02285E3
:10046C003830853931853A32853B337534FD7535F5
:10047C00437536037537001202A67534437535661D
:10048C007536257537001201F1853038853139857F
:10049C00323A85333B22C002AA3812008BD002C0FC
:1004AC0002AA3912008BD002C002AA3A12008BD0D9
:1004BC0002C002AA3B12008BD00222EA540F443035
:1004CC00754000753F008A3EE9C4540F4430E9542E
:1004DC000F4430893DE8C4540F4430E8540F443085
:1004EC00883C2275817F1204041200DA120412C0B7
:1004FC00E0740114120111D0E0C083C082C0E090FE
:10050C00001E120104D0E0D082D083C0E07401142C
:10051C0012010FD0E0C083C082C0E0900031120104
:10052C0004D0E0D082D083D2AF20C5FD85CD387504
:10053C003901753A8785CC3B754100754200C2CABA
:10054C0075CC0075CD0020A0FD30A0FDD2CA20A036
:10055C00FD30A0FDC2CAC0E0740C14120111D0E031
:10056C0012041EC2CA75CC0075CD0020A1FD30A1AD
:10057C00FDD2CA20A1FD30A1FDC2CAC0E0740C148A
:10058C0012010FD0E012041E02063202054AC0E02E
:10059C00740914120111D0E0C000A841120116D048
:1005AC0000C0E074091412010FD0E0C000A8421280
:1005BC000116D000C2CA75CC0075CD0020A0FD304C
:1005CC00A0FDD2CA20A0FD30A0FDC2CAC0E0740CB0
:1005DC0014120111D0E012041E22C0E0740914128E
:1005EC000111D0E0C000A841120116D000C0E07487
:1005FC00091412010FD0E0C000A842120116D0005D
:10060C00C2CA75CC0075CD0020A1FD30A1FDD2CAA7
:10061C0020A1FD30A1FDC2CAC0E0740C1412010F60
:10062C00D0E012041E22D201D202C0E074091412CE
:10063C000111D0E0C000A841120116D000C0E07436
:10064C00091412010FD0E0C000A842120116D0000C
:10065C0012046B1204A2E539A2E302067E1203C255
:10066C0075300075310075320075330085304B02E2
:10067C00071D1203DE0206B4753425753512753666
:10068C0000753700120292100003D20122C201221F
:10069C0075342F75351275360075370012029210AD
:1006AC000003D20222C2022212059A1204C71201BE
:1006BC00B512068412012C12044010011EC28EE4E5
:1006CC00E5412401F541B4053EE4D201D202020613
:1006DC00DDD201D2020208170206841205E61204CA
:1006EC00C71201B512069C12012C1204401002B85C
:1006FC00C28EE4E5422401F542B4050BD201D202CC
:10070C00E40207160206B4020632D201D202020833
:10071C00AC020684C0E0740F1412010FD0E0C000CC
:10072C00A84B120116D000854B3475300175310081
:10073C007532007533001201F17534E875350375A7
:10074C00360075370012026C20002085304B2001DA
:10075C0038C0027A3212008BD00220012C3001FDFD
:10076C00C28EE4E541B40006020632020632F530D0
:10077C00753401753500753600753700120212E5B7
:10078C0030D4F541E4D201D20202069CC0E0740FD1
:10079C001412010FD0E0C000A84B120116D0008536
:1007AC004B34753001753100753200753300120110
:1007BC00F17534E875350375360075370012026C27
:1007CC002000A885304B200238C0027A3212008BF0
:1007DC00D00220022C3002FDC28EE4E542B40003AC
:1007EC00020810F530753401753500753600753713
:1007FC0000120212E530D4F542E4C201C202020832
:10080C001002071DD201D202020632D201D202C05E
:10081C00E0740914120111D0E0C083C082C0E090D2
:10082C000044120104D0E0D082D083C0E0740914DB
:10083C0012010FD0E0C083C082C0E090004E1201C4
:10084C0004D0E0D082D083C0027A0512008BD00293
:10085C00C0E0740114120111D0E0C083C082C0E06A
:10086C00900068120104D0E0D082D083C0E0740103
:10087C001412010FD0E0C083C082C0E0900075124A
:10088C000104D0E0D082D08320C512C0027A0512B8
:10089C00008BD00220C50630C5FD020944020817A2
:1008AC00D201D202C0E0740914120111D0E0C0834D
:1008BC00C082C0E0900056120104D0E0D082D083F8
:1008CC00C0E074091412010FD0E0C083C082C0E0F4
:1008DC0090005E120104D0E0D082D083C0027A3244
:1008EC0012008BD002C0E0740114120111D0E0C0D0
:1008FC0083C082C0E0900068120104D0E0D082D0A6
:10090C0083C0E074011412010FD0E0C083C082C018
:10091C00E0900075120104D0E0D082D08320C51580
:10092C00C0027A3212008BD00220C50930C5FD02FC
:10093C0009440208170208AC0209477541007542C8
:04094C00000206326D
:00000001FF
