:030000000204A354
:03000B000203DB12
:0100130032BA
:03001B00020403D9
:10001E00506C61796572313A2020202020202020FA
:10002E00202000506C61796572323A202020202009
:10003E0020202020200057696E6E6572213A440000
:10004E004C6F7365723A50004C6F7365723A500084
:10005E0057696E6E6572213A4400506C6179206169
:10006E006761696E203F0020202020202020202064
:02007E00200060
:10008000C00078B10000D8FCD00022C000C00179C7
:100090002D78A6D8FED9FADAF6D001D00022D2B354
:1000A000120080C2B322A2E792B7A2E692B6A2E5FE
:1000B00092B5A2E492B412009E120080A2E392B71D
:1000C000A2E292B6A2E192B5A2E092B412009E2200
:1000D000D2B20200A6C2B20200A6C2B374331200AA
:1000E000D574331200D574321200D574281200D59D
:1000F000740C1200D574011200D5C0027A021200ED
:100100008BD00222E49360061200D0A380F6224432
:100110004044800200D5C0E0E8C4540F44301200CF
:0C012000D0E8540F44301200D0D0E02290
:10012C00C0E0C0D0C000C001C002E4F53CF53DF514
:10013C003EF53FF5407A20E533A2E779047830E6C6
:10014C0033F608D9FA7905783CE636D4F608D9F9AD
:10015C00DAE5D002D001D000D0D0D0E022C0E0C08F
:10016C00D0C000C001C002E4F53CF53DF53EF53FC2
:10017C00F5407A20E533A2E779047830E633F608C7
:10018C00D9FA7905783CC0D0E6243320E70224D094
:10019C0020E30224FDD0D033F608D9EADAD6D00217
:1001AC00D001D000D0D0D0E022C0E0C0D0C000C080
:1001BC0001C0027A207905C37840E613C0D030E73D
:1001CC000224D030E30224FDF618D0D0D9EC790407
:1001DC007833E613F618D9FADADBD002D001D00066
:1001EC00D0D0D0E022C0E0C0D0E5302534F530E5E9
:1001FC00313535F531E5323536F532E5333537F510
:10020C0033D0D0D0E022C0E0C0D0C3E5309534F577
:10021C0030E5319535F531E5329536F532E53395E6
:10022C0037F533D0D0D0E022C0E0C0D0C3E5309554
:10023C0034E5319535E5329536E53395379200D076
:10024C00D0D0E022C0E0C0D0C3E5349530E5359580
:10025C0031E5369532E53795339200D0D0D0E02297
:10026C00C0E0C0D0C200C3E53495307014E53595BC
:10027C0031700EE53695327008E53795337002D241
:10028C0000D0D0D0E02212026C20000302025022D7
:10029C0012026C20000302023422C0E0C0F0C0D075
:1002AC00C000C001C002C003E5308534F0A4F8A939
:1002BC00F0E5318534F0A429F9E435F0FAE5308520
:1002CC0035F0A429F9E5F03AFAE433FBE53285344C
:1002DC00F0A42AFAE5F03BFBE5318535F0A42AFAC7
:1002EC00E5F03BFBE5308536F0A42AFAE5F03BFB64
:1002FC00E5338534F0A42BFBE5328535F0A42BFBDC
:10030C00E5318536F0A42BFBE5308537F0A42BFBCB
:10031C008B338A3289318830D003D002D001D0009F
:10032C00D0D0D0F0D0E022C0E0C0D0C000C001C01E
:10033C0002C003C0047C20E4F8F9FAFBC3E53033B7
:10034C00F530E53133F531E53233F532E53333F55C
:10035C0033E833F8E933F9EA33FAEB33FBC3E895C6
:10036C0034E99535EA9536EB95374013E89534F832
:10037C00E99535F9EA9536FAEB9537FB433001DC14
:10038C00BBD004D003D002D001D000D0D0D0E0221A
:10039C0085303485313585323685333722E530C5A5
:1003AC0034F530E531C535F531E532C536F532E594
:1003BC0033C537F53322E58954F04401F589758C42
:1003CC00EA758AE875F4EA75F2E8D2A9D28C22C2F1
:1003DC008DC0E00543E54370020544D0E032E58969
:1003EC0054F04401F589758DEB758B6E75F5EB75D5
:1003FC00F36ED2ABD28E22B29132E58954F0440125
:10040C00F589758DEA758B6775F5EA75F367D2AB6F
:10041C00D28E2275C80075CB0075CA00D2AD22C22F
:10042C00CFC0E00545E54570020546D0E0327AB014
:10043C0079FA78A6D8FED9FADAF6228538308539D9
:10044C0031853A32853B337534FD7535437536034A
:10045C007537001202A675344375356675362575E9
:10046C0037001201F185303885313985323A8533C0
:10047C003B22C002AA3812008BD002C002AA391249
:10048C00008BD002C002AA3A12008BD002C002AA82
:10049C003B12008BD0022275817FC0E074011412D4
:1004AC000111D0E0C083C082C0E090001E12010494
:1004BC00D0E0D082D083C0E074011412010FD0E0E0
:1004CC00C083C082C0E0900031120104D0E0D08221
:1004DC00D083D2AF20C5FD85CD38753901753A87EB
:1004EC0085CC3B7541007542000204F8C0E0740BEA
:1004FC0014120111D0E0C000A841120116D000C0A6
:10050C00E0740B1412010FD0E0C000A842120116C7
:10051C00D000208012C0027A3212008BD0022080D0
:10052C00063080FD0204F8C0E0740B14120111D0E7
:10053C00E0C000A841120116D000C0E0740B1412E8
:10054C00010FD0E0C000A842120116D000C201C2B7
:10055C000212044712047EC0E0740B14120111D075
:10056C00E0C000A841120116D000C0E0740B1412B8
:10057C00010FD0E0C000A842120116D000E539A24C
:10058C00E340030205A71203EA75300075310075CC
:10059C00320075330085304F02064A1204060205FC
:1005AC00AD7534707535127536007537008547306A
:1005BC0012029C1000030205E7D2010205E7753414
:1005CC0070753512753600753700854B3012029CEC
:1005DC00100003020614D2020206142001E0C0022D
:1005EC007A3212008BD0022001D43001FDC28EE48D
:1005FC00E5412401F541B4053BE4C201C202020607
:10060C000DC201C2020207440205CA200293C002B5
:10061C007A3212008BD0022002873002FDC28EE4A7
:10062C00E5422401F542B4050BC201C202E4020604
:10063C00430205E7020533C201C2020207CF0205DD
:10064C00ADC0E0740F1412010FD0E0C000A84F121F
:10065C000116D000854F34753001753100753200AC
:10066C007533001201F17534E87535037536007574
:10067C00370012026C20002085304F200138C00258
:10068C007A3212008BD00220012C3001FDC28EE494
:10069C00E541B40006020533020533F5307534012B
:1006AC00753500753600753700120212E530D4F539
:1006BC0041E4C201C2020205CAC0E0740F14120167
:1006CC000FD0E0C000A84F120116D000854F347532
:1006DC0030017531007532007533001201F175343B
:1006EC00E875350375360075370012026C2000A8CA
:1006FC0085304F200238C0027A3212008BD0022093
:10070C00022C3002FDC28EE4E542B4000302073D28
:10071C00F5307534017535007536007537001202E9
:10072C0012E530D4F542E4C201C20202073D0206D2
:10073C004AC201C202020533C201C202C0E07409FE
:10074C0014120111D0E0C083C082C0E090004412AA
:10075C000104D0E0D082D083C083C082C0E090007E
:10076C004E120104D0E0D082D083C0027A05120070
:10077C008BD002C0E0740114120111D0E0C083C010
:10078C0082C0E0900068120104D0E0D082D083C017
:10079C00E074011412010FD0E0C083C082C0E0905D
:1007AC000075120104D0E0D082D083208012C002E8
:1007BC007A0512008BD0022080063080FD0208677B
:1007CC00020744C201C202C0E0740914120111D024
:1007DC00E0C083C082C0E0900056120104D0E0D08B
:1007EC0082D083C0E074091412010FD0E0C083C022
:1007FC0082C0E090005E120104D0E0D082D083C0B1
:10080C00027A3212008BD002C0E074011412011172
:10081C00D0E0C083C082C0E0900068120104D0E038
:10082C00D082D083C0E074011412010FD0E0C083D9
:10083C00C082C0E0900075120104D0E0D082D08359
:10084C00208015C0027A3212008BD0022080093031
:10085C0080FD0208670207440207CF02086A75414F
:10086C0000754200020533C28C758A00758C0075C8
:10087C004300754400C28DD2CAE54454FE2080F971
:10088C00E54454FE3080F9C28C758A00758C007575
:10089C004300754400C28DD28CE54454FE2080F98F
:1008AC00E54454FE3080F9C2CA8000E58A458C4587
:1008BC00434544858A30858C318543328544337574
:1008CC00342D7535007536007537001202A685304B
:1008DC004702087312041F1200DAD2AF22C2CA7583
:1008EC00CC0075CD00754500754600C2CFD2CAE567
:1008FC004654FE2080F9E54654FE3080F9C2CA7594
:10090C00CC0075CD00754500754600C2CFD2CAE546
:10091C004654FE2080F9E54654FE3080F9C2CA8068
:10092C0000E5CC45CD4545454685CC3085CD31855A
:10093C00453285463375342D75350075360075375F
:0A094C00001202A685304B0208E9F4
:00000001FF
