:030000000204D225
:01000B0032C2
:0100130032BA
:03001B0002039E3F
:10001E00506C61796572313A2020202020202020FA
:10002E00202000506C61796572323A202020202009
:10003E0020202020200057696E6E6572213A440000
:10004E004C6F7365723A50004C6F7365723A500084
:10005E0057696E6E6572213A4400506C6179206169
:10006E006761696E203F0020202020202020202064
:02007E00200060
:10008000C00078B10000D8FCD00022C000C00179C7
:100090002D78A6D8FED9FADAF6D001D00022D2B354
:1000A000120080C2B322A2E792B7A2E692B6A2E5FE
:1000B00092B5A2E492B412009E120080A2E392B71D
:1000C000A2E292B6A2E192B5A2E092B412009E2200
:1000D000D2B20200A6C2B20200A6C2B374331200AA
:1000E000D574331200D574321200D574281200D59D
:1000F000740C1200D574011200D5C0027A021200ED
:100100008BD00222E49360061200D0A380F6224432
:100110004044800200D5C0E0E8C4540F44301200CF
:0C012000D0E8540F44301200D0D0E02290
:10012C00C0E0C0D0C000C001C002E4F53CF53DF514
:10013C003EF53FF5407A20E533A2E779047830E6C6
:10014C0033F608D9FA7905783CC0D0E6243320E799
:10015C000224D020E30224FDD0D033F608D9EADA09
:10016C00D6D002D001D000D0D0D0E022C0E0C0D098
:10017C00C000C001C0027A207905C37840E613C0E4
:10018C00D030E70224D030E30224FDF618D0D0D9C9
:10019C00EC79047833E613F618D9FADADBD002D00E
:1001AC0001D000D0D0D0E022C0E0C0D0E530253462
:1001BC00F530E5313535F531E5323536F532E533A7
:1001CC003537F533D0D0D0E022C0E0C0D0C3E53015
:1001DC009534F530E5319535F531E5329536F53216
:1001EC00E5339537F533D0D0D0E022C0E0C0D0C392
:1001FC00E5309534E5319535E5329536E53395376F
:10020C009200D0D0D0E022C0E0C0D0C3E53495300D
:10021C00E5359531E5369532E53795339200D0D0FA
:10022C00D0E022C0E0C0D0C200C3E53495307014D9
:10023C00E5359531700EE53695327008E537953316
:10024C007002D200D0D0D0E02212022F2000030284
:10025C0002132212022F2000030201F722C0E0C079
:10026C00F0C0D0C000C001C002C003E5308534F03E
:10027C00A4F8A9F0E5318534F0A429F9E435F0FAB5
:10028C00E5308535F0A429F9E5F03AFAE433FBE5DD
:10029C00328534F0A42AFAE5F03BFBE5318535F0E4
:1002AC00A42AFAE5F03BFBE5308536F0A42AFAE502
:1002BC00F03BFBE5338534F0A42BFBE5328535F0C0
:1002CC00A42BFBE5318536F0A42BFBE5308537F00C
:1002DC00A42BFB8B338A3289318830D003D002D0E7
:1002EC0001D000D0D0D0F0D0E022C0E0C0D0C0000F
:1002FC00C001C002C003C0047C20E4F8F9FAFBC3BF
:10030C00E53033F530E53133F531E53233F532E5AF
:10031C003333F533E833F8E933F9EA33FAEB33FBEB
:10032C00C3E89534E99535EA9536EB95374013E8F3
:10033C009534F8E99535F9EA9536FAEB9537FB43A0
:10034C003001DCBBD004D003D002D001D000D0D01F
:10035C00D0E02285303485313585323685333722ED
:10036C00E530C534F530E531C535F531E532C53606
:10037C00F532E533C537F53322E58954F04401F500
:10038C0089758DEB758B6E75F5EB75F36ED2ABD203
:10039C008E22B29132E58954F04401F589758DEACB
:1003AC00758B6775F5EA75F367D2ABD28E227AB08E
:1003BC0079FA78A6D8FED9FADAF62275C80275CB86
:1003CC000075CA00D2902275881175F40075F20080
:1003DC00D28022E4780079007A007B10E5CC33F5EA
:1003EC00CCE5CD33F5CDE838D4F8E939D4F9EA3A8F
:1003FC00D4FADBE822E4780079007A007B10E58AF5
:10040C0033F58AE58C33F58CE838D4F8E939D4F92E
:10041C00EA3AD4FADBE822EA540F44301200D0E96D
:10042C00C4540F44301200D0E9540F44301200D0A1
:10043C00E8C4540F44301200D0E8540F443012007A
:10044C00D022853830853931853A32853B33753445
:10045C00FD753543753603753700120269753443E3
:10046C007535667536257537001201B485303885BB
:10047C00313985323A85333B22C002AA3812008BBF
:10048C00D002C002AA3912008BD002C002AA3A12C2
:10049C00008BD002C002AA3B12008BD00222EA547D
:1004AC000F4430754000753F008A3EE9C4540F4438
:1004BC0030E9540F4430893DE8C4540F4430E854BB
:1004CC000F4430883C2275817FC0E0740114120106
:1004DC0011D0E0C083C082C0E090001E120104D095
:1004EC00E0D082D083C0E074011412010FD0E0C0C0
:1004FC0083C082C0E0900031120104D0E0D082D0E1
:10050C00831203C71203D3D2AF20C5FD85CD387536
:10051C003901753A8785CC3B754100754200C2CADA
:10052C00C28CE4F58AF58CF5CCF5CDC2CFC28DD258
:10053C00CAD28C1203BAC2CAC28CC0E0740C141298
:10054C000111D0E01203DF120423C0E0740C14126A
:10055C00010FD0E01204011204230205A880BFC2CF
:10056C00CAE4C28CF58AF58CF5CCF5CDC2CFC28D20
:10057C00D2CAD28C1203BAC2CAC28CC0E0740C1498
:10058C00120111D0E01203DF120423C0E0740C142A
:10059C0012010FD0E012040112042322D201D20264
:1005AC00C0E0740914120111D0E0C000A84112017E
:1005BC0016D000C0E074091412010FD0E0C000A8DE
:1005CC0042120116D00012044E120485E539A2E342
:1005DC000205F41203857530007531007532007513
:1005EC00330085304B0206801203A10206297534B4
:1005FC008975351275360075370012025F100001CF
:10060C0022C2012275348975351275360075370092
:10061C0085473012025F10000122C2022212056BC4
:10062C001204AA1201781205FA10011EC28EE4E51A
:10063C00412401F541B40532E4D201D20202064C48
:10064C00D201D20202077A0205FA12056B120610C9
:10065C001002CAC28EE4E5422401F542B4050BD265
:10066C0001D202E40206790206290205A8D201D2BF
:10067C000202080F0205FAC0E0740F1412010FD029
:10068C00E0C000A84B120116D000854B3475300128
:10069C007531007532007533001201B47534E8758C
:1006AC00350375360075370012022F200020853077
:1006BC004B200138C0027A3212008BD00220012C60
:1006CC003001FDC28EE4E541B400060205A8020526
:1006DC00A8F5307534017535007536007537001284
:1006EC0001D5E530D4F541E4D201D202020610C0A6
:1006FC00E0740F1412010FD0E0C000A84B120116C9
:10070C00D000854B3475300175310075320075336E
:10071C00001201B47534E875350375360075370071
:10072C0012022F2000A885304B200238C0027A32EA
:10073C0012008BD00220022C3002FDC28EE4E54266
:10074C00B40003020773F530753401753500753646
:10075C00007537001201D5E530D4F542E4C201C270
:10076C0002020773020680D201D2020205A8D2014E
:10077C00D202C0E0740914120111D0E0C083C0820F
:10078C00C0E0900044120104D0E0D082D083C0E0DD
:10079C0074091412010FD0E0C083C082C0E0900035
:1007AC004E120104D0E0D082D083C0027A05120030
:1007BC008BD002C0E0740114120111D0E0C083C0D0
:1007CC0082C0E0900068120104D0E0D082D083C0D7
:1007DC00E074011412010FD0E0C083C082C0E0901D
:1007EC000075120104D0E0D082D08320C512C00263
:1007FC007A0512008BD00220C50630C5FD0208A771
:10080C0002077AD201D202C0E0740914120111D08D
:10081C00E0C083C082C0E0900056120104D0E0D04A
:10082C0082D083C0E074091412010FD0E0C083C0E1
:10083C0082C0E090005E120104D0E0D082D083C070
:10084C00027A3212008BD002C0E074011412011132
:10085C00D0E0C083C082C0E0900068120104D0E0F8
:10086C00D082D083C0E074011412010FD0E0C08399
:10087C00C082C0E0900075120104D0E0D082D08319
:10088C0020C515C0027A3212008BD00220C5093067
:10089C00C5FD0208A702077A02080F0208AA7541D3
:0708AC00007542000205A8DF
:00000001FF
